:020000040800F2
:1000000008DF0020E1010008E9280008EB280008CB
:10001000F3280008F5280008F72800080000000071
:10002000000000000000000000000000490100087E
:10003000F9280008000000008D010008FB280008D6
:10004000FB010008FB010008FB010008FB010008A0
:10005000FB010008FB010008FB010008FB01000890
:10006000FB010008FB010008FB010008FB01000880
:10007000FB010008FB010008FB010008FB01000870
:10008000FB010008FB010008FB010008FB01000860
:10009000FB010008FB010008FB010008FB01000850
:1000A000FB010008FB010008FB010008FB01000840
:1000B000FB010008FB010008FB010008FB01000830
:1000C000FB010008FB010008FB010008FB01000820
:1000D000FB010008FB010008FB010008FB01000810
:1000E000FB010008FB010008FB010008FB01000800
:1000F000FB010008FB010008FB010008FB010008F0
:10010000FB010008FB010008FB010008FB010008DF
:10011000FB010008FB0100080F290008FB01000893
:10012000FB010008FB010008FB010008FB010008BF
:10013000DFF810D008F060FD00480047E126000815
:10014000AFF3008008DF0020224B19680868B0E890
:10015000F00F80F30988BFF36F8F4FF0000080F33A
:1001600011884EF00D0E7047000000000648006830
:10017000006880F3088862B661B6BFF34F8FBFF3A3
:100180006F8F00DF00BF00BF08ED00E0EFF30980D4
:10019000BFF36F8F0F4B1A6820E9F00F106008B59E
:1001A0004FF0500080F31188BFF34F8FBFF36F8F74
:1001B00004F036FB4FF0000080F31188BDE80840E2
:1001C00019680868B0E8F00F80F30988BFF36F8FF3
:1001D000704700BF5C000020EFF30580704700000F
:1001E0000648804706480047FEE7FEE7FEE7FEE7D1
:1001F000FEE7FEE7FEE7FEE7FEE7FEE7AD020008EA
:10020000310100080CB500220192009252480168A9
:1002100041F4803101604FF4A063016801F40031C2
:1002200000910199491C0191009911B901999942D4
:10023000F3D10168890302D50121009100E0009209
:100240000099012930D145490A6842F010020A603C
:100250000A6822F003020A600A6842F002020A6099
:100260004168416041684160416841F4806141609A
:10027000416821F47C114160416841F4E81141601A
:10028000016841F08071016001688901FCD5416815
:1002900021F003014160416841F002014160416881
:1002A000C1F381010229FAD10CBDABE710B52A4890
:1002B000016841F0010101604168294A1140416033
:1002C0000168284A11400160016821F48021016021
:1002D000416821F4FE0141604FF41F018160FFF786
:1002E000E4FF21494FF00060086010BD10B51A4AC4
:1002F000506800F00C011D4B1D4800290ED0042948
:100300000ED008290ED003605168194AC1F30311B9
:10031000121D515C0268CA40026010BD0360F3E721
:100320000360F1E7516801F47011536803F48033FE
:10033000022404EB914133B153689B0307D50D4B65
:1003400059430160E0E70B4B59430160DCE7074B81
:1003500059430160D8E7000000100240002002402D
:100360000000FFF8FFFFF6FE08ED00E000127A0043
:100370000000002000093D002A4908432A4908607E
:10038000704770B50F23C27801260178002A1ED06D
:10039000254A126802F4E062C2F5E062120AC2F174
:1003A0000404D3404578A54082781A402A431201BC
:1003B00001F1E02181F80024007800F01F018E4057
:1003C0004009800000F1E020C0F8006170BD01F03C
:1003D0001F0086404809800000F1E020C0F88061DD
:1003E00070BD124A114001430F48001F0160704761
:1003F0000D4A121D002903D0116801431160704796
:1004000011688143116070474FF0E021042804D047
:10041000086920F0040008617047086940F0040092
:10042000086170470000FA050CED00E080FFFF1F37
:1004300010B5DB4988420AD144150121204601F05C
:100440001EF82046BDE81040002101F018B8D5493B
:1004500088420AD104150121204601F010F82046F7
:10046000BDE81040002101F00AB8CF4988420AD106
:100470000121CC03204601F002F82046BDE81040DF
:10048000002100F0FCBF10BD10B54268C74B1A40F8
:100490000C790B6842EA0422134343608268C44B20
:1004A0001A40D1E9024323434C7942EA4402134300
:1004B0008360C26A22F47002097C491EC9B242EA12
:1004C0000151C16210BD0021016001714171816063
:1004D000C160012101747047002904D0816841F096
:1004E000010181607047816821F0010181607047DE
:1004F000002904D0816841F480718160704781686F
:1005000021F4807181607047C9B2002A03D042682B
:100510000A434260704742688A434260704781687C
:1005200041F0080181607047014600208968090791
:1005300000D501207047816841F004018160704757
:10054000014600208968490700D50120704700292D
:1005500004D0816841F4A00181607047816821F472
:10056000A00181607047014600208968490200D5DA
:1005700001207047426822F46042491E42EA41313C
:1005800041607047002904D0416841F40061416036
:100590007047416821F400614160704770B50726DB
:1005A00009290AD9C568A1F10A0404EB4404A6404C
:1005B000B543A3401D43C56007E0056901EB410455
:1005C000A640B543A3401D4305611F23072A09D256
:1005D000446B521E02EB820293409C4391400C43B9
:1005E000446370BD0D2A09D2046BD21F02EB820254
:1005F00093409C4391400C43046370BDC46A0D3A20
:1006000002EB820293409C4391400C43C46270BD54
:10061000002904D0816841F48011816070478168AD
:1006200021F4801181607047C06C80B270475C48D3
:100630004C3000687047002904D0416841F4806163
:1006400041607047416821F4806141607047002932
:1006500004D0416841F4805141607047416821F401
:10066000805141607047826822F4E0420A43826010
:100670007047002904D0816841F4004181607047CF
:10068000816821F4004181607047002904D08168AD
:1006900041F4021181607047816821F40211816088
:1006A0007047014600208968890200D50120704703
:1006B00070B5072609290AD9C568A1F10A0404EB17
:1006C0004404A640B543A3401D43C56007E0056947
:1006D00001EB4104A640B543A3401D430561836B74
:1006E000C3F30154121B921C02EB82021F2494409C
:1006F000A34391400B43836370BD826B22F440128D
:10070000491E42EA01518163704708B50090009884
:10071000084400900098026008BD08B50090009859
:100720000844283000900098006880B208BD4268F4
:10073000204B1A400A434260704741628262704710
:10074000426822F01F020A43426070471449083190
:10075000002804D0086840F400000860704708686A
:1007600020F40000086070470246002012680A4228
:1007700000D001207047C9430160704710B50246A0
:1007800000200B0A5468C9B20C401168194202D00B
:10079000002C00D0012010BD090AC9430160704738
:1007A0000024014000280140003C0140FFFEF0FF12
:1007B000FDF7F1FFFFFD3FFF10B501214C0720467B
:1007C00000F068FE2046BDE81040002100F062BE47
:1007D00030B53F4C236840F6FE7282409343D1E926
:1007E00000252A43D1E902510D432A4382401A438E
:1007F000226030BD0021016041608160C1607047AE
:100800000122334B8240002903D01868104318603E
:10081000704718689043186070472D4B9A148240B7
:10082000002903D018681043186070471868904377
:1008300018607047264B1B1D0209012090400029BB
:1008400003D0196801431960704719688143196022
:1008500070471F49091D002804D0086840F00300B4
:1008600008607047086820F0030008607047184B64
:100870008140002A03D01868084318607047186840
:1008800088431860704708B5114A1044083000903A
:100890000098016008BD08B50D4A1044143000905E
:1008A0000098016008BD082805D042EA0141084AC5
:1008B00010440162704742EA0121F8E708B5044993
:1008C00001EB90002C3000900098006880B208BDC9
:1008D0000074004001684FF6FE7211400160002173
:1008E000016041608160C1607249724A083990427A
:1008F00004D1486840F00F00486070476D4A1432D8
:10090000904204D1486840F0F00048607047694A5E
:100910002832904204D1486840F4706048607047C3
:10092000644A3C32904204D1486840F470404860C8
:100930007047604A5032904204D1486840F47020B9
:10094000486070475B4A6432904204D1486840F482
:10095000700048607047574A7832904204D1486826
:1009600040F0706048607047534A111F904204D1B4
:10097000086840F00F00086070474F4A14329042F8
:1009800004D1086840F0F000086070474A4A2832F5
:10099000904204D1086840F4706008607047464A8D
:1009A0003C32904204D1086840F4704008607047BF
:1009B000414A50329042FAD1086840F470200860F1
:1009C000704730B5026847F6F0739A430C6A8B683B
:1009D0002343D1E904452C4323438C692343CC6949
:1009E00023434C6A23438C6A234313430360CA683E
:1009F00042600A6882604968C16030BD00210160C0
:100A000041608160C160016141618161C1610162D8
:100A1000416281627047002904D0016841F0010100
:100A20000160704701684FF6FE7211400160704727
:100A3000002A03D002680A430260704702688A43B2
:100A40000260704741607047406880B2704702465C
:100A50000020D10003D518490839096802E015497A
:100A600008390968114200D001207047C10003D540
:100A70001149091F086070470E49083948607047DE
:100A800002460020D10003D50B490839096802E06D
:100A9000084908390968114200D001207047C10097
:100AA00003D50549091F08607047024908394860A5
:100AB0007047000008000240080402408100A1F1D4
:100AC000C04100280CD043F2D2020A60401C8000D2
:100AD000A0F1C0406FF070420260C1F8042170477D
:100AE0004FF0204343F2DB021A60EFE710B5182401
:100AF00040234FF020414FF0FC32102805D041F840
:100B0000804F4B608A60CA6010BD0C664B668A6677
:100B1000CA6610BDF74818210160002141604FF0FE
:100B2000FC318160C1600161704710B5D0E90112EC
:100B30001143D0E903231A431143426911438269E7
:100B40001143C2691143026A1143426A1143826A26
:100B50001143C26A1143026B114302689200A2F171
:100B6000C04211608168082907D101688900A1F19C
:100B7000C0410A6842F040020A60416BD1E900239B
:100B800042EA03128B688C891B0243EA04431A432E
:100B90000B8A42EA03520B7D896942EA03620A43E7
:100BA0000168491C8900A1F1C0410A60C16AB1F520
:100BB000804F08D000686FF070418000A0F1C04005
:100BC000C0F8041110BD816BD1E9002342EA031281
:100BD0008B680C8A1B0243EA04531A430B7D896914
:100BE00042EA036200680A438000A0F1C040C0F8F6
:100BF000042110BD30B5D0E901121143D0E903231F
:100C00001A431143426941EA4221826941EA423171
:100C100041F00804C169D1E9002342EA03220B89AB
:100C2000097B1B0443EA01610A43016AD1E90035EB
:100C300043EA05230D89097B2D0445EA01610B4335
:100C400001684FF02040102904D040F8804F8260A6
:100C5000C36030BD04668266C36630BD10B5D0E99E
:100C6000001241EA42218268102343EA42321143D2
:100C7000A04A1160C168D1E9003443EA04230C8919
:100C8000097B240444EA01610B4393600169D1E9C3
:100C9000003443EA04230C89097B240444EA0161FB
:100CA0000B43D3604069D0E9001341EA0321038973
:100CB000007B1B0443EA00600143116110BD10B5C5
:100CC00000210160022242608160C16001614161D6
:100CD0008161C1610162D202426252008262C162DC
:100CE0000163436B0F221A60436B5A60446BFF230E
:100CF000A360446BE260446B2261446B6261446BAD
:100D0000A161846B2260846B6260846BA360836BDF
:100D1000DA60836B1A61836B5A61806B816110BDED
:100D200010210160002141608160C1600161416169
:100D30008161C269FC211160C2695160C269916020
:100D4000C269D160026A1160026A5160026A9160F0
:100D5000006AC16070470021016041608160C26823
:100D6000FC211160C2685160C2689160C268D160A4
:100D70000269116002695160026991600269D16083
:100D80004269116042695160426991604069C16085
:100D900070478000A0F1C040002904D0016841F0F4
:100DA0000101016070470168534A114001607047BA
:100DB0004FF0204200290CD0102805D052F8800FA7
:100DC00040F0040010607047106E40F004001066A0
:100DD00070474949C91E102804D052F8800F0840B6
:100DE00010607047106E0840106670474FF0204149
:100DF000002805D051F8A00F40F0040008607047AB
:100E000051F8A00F3C4AD21E1040086070474FF0C6
:100E1000204200290CD0102805D052F8800F40F055
:100E2000400010607047106E40F040001066704740
:100E300031493F39102804D052F8800F0840106023
:100E40007047106E0840106670474FF02041102820
:100E500002D0D1F894007047486F704710B54FF436
:100E600080744FF02043002A11D0102806D0A042F1
:100E700008D153F8840F0843186010BD586E08431A
:100E8000586610BD53F8A40F0843186010BD102811
:100E900006D0A04208D153F8840F8843186010BDD3
:100EA000586E8843586610BD53F8A40F88431860E5
:100EB00010BD034600204FF02042102B08D0B3F5A0
:100EC000807F07D0D2F8A4200A4200D001207047CA
:100ED000526EF9E7D2F88420F6E74FF0204210284E
:100EE0000CD0B0F5807F0DD052F8A40F884310606D
:100EF00070470000A00000A0FEFF0F00506E884366
:100F00005066F5E752F8840F88431060F0E7034617
:100F100000204FF02042102B0ED0B3F5807F0DD073
:100F2000D2F8A42002EA010302EAD101002BDFD0AB
:100F30000029DDD00120DBE7526EF3E7D2F88420F0
:100F4000F0E74FF02042102808D0B0F5807F0AD09B
:100F500052F8A40F20EAD1001060C9E7506E20EAD1
:100F6000D1005066C4E752F8840F20EAD100106027
:100F7000BEE7000010B59C49884209D10121042038
:100F800000F07DFA0021BDE81040042000F077BA9F
:100F90009649884209D10121082000F070FA002109
:100FA000BDE81040082000F06ABA9149884209D192
:100FB0000121102000F063FA0021BDE8104010204C
:100FC00000F05DBA8B49884209D10121202000F050
:100FD00056FA0021BDE81040202000F050BA8649A2
:100FE000884209D10121402000F049FA0021BDE8E2
:100FF0001040402000F043BA8049884209D10121C5
:10100000802000F03CFA0021BDE81040802000F074
:1010100036BA7B4988420AD184150121204600F066
:101020002EFA2046BDE81040002100F028BA10BD7D
:1010300010B50121084600F022FA0021BDE8104059
:10104000012000F01CBA2DE9F0410022CC7804F018
:101050000F03E40601D58C7823430C784FF00F077B
:1010600014F0FF0F4FF0010C1CD005680CFA02F4CD
:101070000E882640A64211D1960007FA06F825EA06
:10108000080503FA06F848EA0505CE78282E02D0AE
:10109000482E02D002E0446100E00461521C082A9C
:1010A000E4D305600A88FF2A1ED94568002202F1B0
:1010B00008060CFA06F40E882640A64210D19600C7
:1010C00007FA06F825EA080503FA06F848EA0505CE
:1010D000CE78282E00D14461CE78482E00D104610C
:1010E000521C082AE3D34560BDE8F0814FF6FF713A
:1010F0000180022181700421C170704702460020E6
:1011000092680A4200D001207047806880B2704720
:1011100002460020D2680A4200D001207047C06811
:1011200080B270470161704741617047002A01D069
:101130000161704741617047C160704741F480327E
:1011400082618161826181698069704710B52D4B30
:101150001A684FF68074224042EA00100843186073
:1011600010BD2949C8617047F0B5264C002801DA46
:10117000E36900E06368C0F30346420D120185B2E3
:10118000C0F301579540032F07D0C2020CD50322AC
:10119000B240934343F0706209E023F070626368E9
:1011A00023F07063636002E0AB4343F0706201B10F
:1011B0002A43002801DAE261F0BD6260F0BD10B59B
:1011C0008A07120F0F23934021F003040D49214495
:1011D0008C689C438C608B68904003438B6010BD8F
:1011E0000949DC310860704700080140000C0140EB
:1011F000001001400014014000180140001C014093
:10120000002001400000014000002042B448016875
:1012100041F0010101604168B24A1140416001683A
:10122000B14A11400160016821F4802101604168E8
:1012300021F4FE0141604FF41F0181607047A8490D
:101240000A6822F480320A600A6822F480220A6066
:10125000B0F5803F07D0B0F5802F03D1086840F487
:10126000A02008607047086840F48030086070472C
:101270000346002059099A4A01290AD002290AD0B6
:10128000516A03F01F02012393400B4200D001205A
:1012900070471168F5E7116AF3E718B50020009070
:1012A0004FF4A0643120FFF7E3FF0099491C00913F
:1012B0000099A14201D00028F4D03120FFF7D8FFD7
:1012C00008B1012018BD002018BD854A116821F021
:1012D000F80141EAC0001060704784490860704717
:1012E0007F4B5A6822F47C120843104358607047C1
:1012F0007E49086670477A4A516821F0030101432C
:10130000516070477648406800F00C007047744A9E
:10131000516821F0F001014351607047704A5168F3
:1013200021F4E0610143516070476D4A516821F436
:10133000605141EAC00050607047694A002903D0FB
:10134000517A014351727047517A8143517270470B
:101350006649D83108607047614A516821F44041BC
:101360000143516070475E49002220310A7001F844
:101370002029012805D0042802D1052081F8200069
:101380007047012081F82000704759490860704774
:1013900053490A6A02430A62704755494439086052
:1013A000704710B54E4A516801F00C01514B0029AD
:1013B00027D0042927D0082927D00360516801F0DD
:1013C000F00109094C4B5C5C0168E14041605468E4
:1013D00004F4E064240A1C5D21FA04F48460546877
:1013E00004F46054E40A1B5DD940C160526802F401
:1013F0004042920B404B1B1F9A5CB1FBF2F1016122
:1014000010BD0360DAE70360D8E7516801F470119A
:10141000536803F48033022404EB914133B15368E1
:101420009B0307D5354B59430160C7E7334B5943FD
:101430000160C3E72F4B59430160BFE7284A0029E9
:1014400003D0516901435161704751698143516132
:101450007047234A002903D0916901439161704785
:1014600091698143916170471D4A002903D0D16978
:101470000143D1617047D1698143D1617047184AF6
:10148000002903D0D1680143D1607047D1688143FE
:10149000D1607047124A002903D0116901431161DC
:1014A00070471169814311617047114940390860E3
:1014B00070470E49C86470470949C87170470848A9
:1014C000416A41F080714162704701460020044A40
:1014D00092680A4200D00120704701498872704723
:1014E000001002400000FFF8FFFFF6FE000042423D
:1014F0008004424200127A001800002000093D00DA
:1015000010B5FE4988420AD1C41401212046FFF7D4
:10151000B6FF2046BDE810400021FFF7B0BFB0F194
:10152000804F0CD0F649884213D101210220FFF7E9
:10153000B1FF0021BDE810400220FFF7ABBF012141
:101540000846FFF7A7FF0021BDE810400120FFF784
:10155000A1BFEC49884209D101210420FFF79AFF7D
:101560000021BDE810400420FFF794BFE6498842FF
:1015700009D101210820FFF78DFF0021BDE81040AF
:101580000820FFF787BFE149884209D101211020D7
:10159000FFF780FF0021BDE810401020FFF77ABF61
:1015A000DB49884209D101212020FFF773FF002188
:1015B000BDE810402020FFF76DBFD64988420AD110
:1015C000441401212046FFF75AFF2046BDE8104091
:1015D0000021FFF754BFD04988420AD10121CC0431
:1015E0002046FFF74CFF2046BDE810400021FFF7E2
:1015F00046BFCA4988420AD101210C052046FFF79F
:101600003EFF2046BDE810400021FFF738BFC44927
:1016100088420AD101214C052046FFF730FF2046C1
:10162000BDE810400021FFF72ABFBE49884209D11A
:1016300001214020FFF72EFF0021BDE8104040208F
:10164000FFF728BFB849884209D101218020FFF760
:1016500021FF0021BDE810408020FFF71BBFB349E8
:1016600088420AD1841501212046FFF713FF204646
:10167000BDE810400021FFF70DBFAD4988420AD1F7
:1016800001210C042046FFF7FAFE2046BDE8104079
:101690000021FFF7F4BEA74988420AD101214C047A
:1016A0002046FFF7ECFE2046BDE810400021FFF782
:1016B000E6BEA14988420AD101218C042046FFF7E9
:1016C000DEFE2046BDE810400021FFF7D8BE10BD69
:1016D00030B50288894C8F4DA0420DD0A8420BD066
:1016E000B0F1804F08D0864B984205D0854B984288
:1016F00002D0854B984203D122F070034A881A43E6
:10170000824B984206D0824B984203D022F4407319
:10171000CA881A4302808A8882850A880285A04284
:101720000AD0A84208D0824A904205D0814A90420D
:1017300002D0814A904201D1097A01860121818239
:1017400030BD30B5028C22F001020284028C838805
:10175000048B24F0700424F003050C882C4322F041
:1017600002020D8915434A882A43644DA8420BD0D2
:10177000684DA84208D06E4DA84205D06D4DA842D4
:1017800002D06D4DA8420FD122F008054A892A43A4
:1017900022F004058A882A4323F4807323F400731B
:1017A0008D891D43CB892B4383800483C98881861F
:1017B000028430BD70B5028C22F010020284028CCB
:1017C0008388048B24F4E04424F440760D884FF69B
:1017D000FF7404EA0525354322F020020E8904EA4D
:1017E000061616434A8804EA02123243434EB042B8
:1017F00002D0484EB04217D122F080024E8904EA4E
:101800000616164326F040068A8804EA021232437E
:1018100023F4806323F400638E8904EA86061E4362
:10182000CB8904EA8303334383800583C988018716
:10183000028470BD70B5028C22F480720284028C26
:101840008388848B24F0700424F003040D882543DE
:1018500022F400720E894FF6FF7404EA062616433E
:101860004A8804EA02223243244EB04202D0294E72
:10187000B04217D122F400664A8904EA02223243B8
:1018800022F480668A8804EA0222324323F48053D9
:1018900023F400538E8904EA06161E43CB8904EA1A
:1018A0000313334383808583C9888187028470BD95
:1018B00070B5028C22F480520284058C8288838B5E
:1018C00023F4E04323F440760C884FF6FF7303EAD9
:1018D0000424344325F400550E8903EA06362E43CA
:1018E0004D8803EA05353543044EB04202D0094E17
:1018F000B04226D122F480468A891FE0002C0140A4
:101900000004004000080040000C004000100040AF
:101910000014004000340140004C014000500140E0
:101920000054014000180040001C0040002000400E
:1019300000400140004401400048014003EA821297
:10194000324382808483C988A0F84010058470BD2A
:10195000828B22F440628283828B4FF6FF7303EA0C
:1019600001210A4382837047F0B5048C24F480542B
:101970000484868B048C4FF6FF7505EA013726F444
:10198000734605EA0222324305EA03331343F74A5A
:1019900090420ED0F64A90420BD0B0F1804F08D062
:1019A000F44A904205D0F44A904202D0F34A904261
:1019B00005D124F40051394341F4805104E024F46A
:1019C00002420A4342F4805183830184F0BD828B3A
:1019D00022F00C028283828B0A4382837047F0B527
:1019E000048C24F480740484858B048C4FF6FF7778
:1019F00007EA012625F0F30507EA031313432B43F7
:101A0000DA4A90420ED0DA4A90420BD0B0F1804FC1
:101A100008D0D84A904205D0D74A904202D0D74A3F
:101A2000904205D124F40071314341F4807104E007
:101A300024F420620A4342F4807183830184F0BD60
:101A4000028B22F440620283028B4FF6FF7303EA9B
:101A500001210A4302837047F0B5048C24F010047E
:101A60000484068B048C4FF6FF7505EA011726F4F3
:101A7000734605EA0333334305EA02221A43BB4B9C
:101A800098420ED0BA4B98420BD0B0F1804F08D09C
:101A9000B84B984205D0B84B984202D0B74B984209
:101AA00005D124F02001394341F0100104E024F075
:101AB000A0030B4343F0100102830184F0BD028BAD
:101AC00022F00C020283028B0A430283704770B536
:101AD000048C24F001040484058B048C25F0F305A8
:101AE0004FF6FF7606EA031313432B439F4A9042B7
:101AF0000ED09F4A90420BD0B0F1804F08D09D4A43
:101B0000904205D09C4A904202D09C4A904205D116
:101B100024F002020A4342F0010104E024F00A0228
:101B20000A4342F001010383018470BD70B505468C
:101B30000C468E48854209D08D48854206D0B5F1C5
:101B4000804F03D08B48854200D08B482088618825
:101B5000A288238958B1042811D0082817D0284614
:101B6000FFF702FFE1882846BDE87040F0E628460E
:101B7000FFF7ADFFE1882846BDE870409FE72846A3
:101B8000FFF76AFFE1882846BDE8704058E728461D
:101B9000FFF725FFE1882846BDE8704017E72DE9EB
:101BA000F04107460C46002501266188002900D136
:101BB0000225A288012A00D102262088238988B123
:101BC0003846FFF749FFE1883846FFF739FF238998
:101BD000324629463846FFF77AFFE1883846BDE8A5
:101BE000F0416CE73846FFF772FFE1883846FFF7AF
:101BF00066FF2389324629463846FFF72DFFE188E4
:101C00003846BDE8F0411BE710B50A884B88CC8800
:101C10001A438B8823431A430B891A434B898989BA
:101C20001A430A43A0F8442010BD4FF6FF7181808B
:101C300000210180C1804180017270470021018034
:101C400041808180C180018141818181C181704752
:101C500000210180418001228280C1800181704782
:101C60000021018041808180C18001814181818189
:101C70007047002904D0018841F0010101807047BC
:101C8000018821F0010101807047002905D030F85A
:101C9000441F41F400410180704730F8441FC1F3F4
:101CA0000E0101807047002A03D082890A43828195
:101CB000704782898A4382817047818270471143CD
:101CC000A0F848107047002A03D082890A43828115
:101CD000704782898A4382817047018921F0070118
:101CE00001817047028922F070020A430281704725
:101CF00000B503461846FFF7F5FF188940F00700C6
:101D0000188100BD70B50D4604461146602D0CD0FB
:101D100001222046FFF7DBFE29462046FFF7E2FFBF
:101D2000208940F00700208170BD01222046FFF786
:101D300093FEF1E730B50489E4B24FF6FF7505EA8A
:101D4000032313430B432343038130BD10B50446E3
:101D50002046FFF7EFFF208920F0070040F0070042
:101D600020F0700040F07000208110BD002C014078
:101D7000003401400004004000080040000C004016
:101D800010B504462046FFF7D5FF208940F4804077
:101D90002081EAE7018582827047028822F0700282
:101DA0000A430280704770B50589048B068C25F0C4
:101DB00007050D434FF6FC410C4040F201110C4366
:101DC00026F022064FF6FF7101EA03111143314359
:101DD00005810483018470BD028B22F070020A43E6
:101DE00002837047028B22F4E0424FF6FF7303EA4E
:101DF0000121114301837047828B22F070020A4354
:101E000082837047828B22F4E0424FF6FF7303EA2D
:101E10000121114381837047002904D0018841F0DA
:101E2000800101807047018821F0800101807047A6
:101E3000002904D0818841F00401818070478188A5
:101E400021F0040181807047002904D0818841F08D
:101E5000080181807047818821F0080181807047E6
:101E6000002904D0818841F0010181807047818878
:101E700021F0010181807047028B22F008020A43A1
:101E800002837047028B22F400624FF6FF7303EA6D
:101E90000121114301837047828B22F008020A431B
:101EA00082837047828B22F400624FF6FF7303EA4D
:101EB0000121114381837047028B22F004020A43FF
:101EC00002837047028B22F480624FF6FF7303EAAD
:101ED0000121114301837047828B22F004020A43DF
:101EE00082837047828B22F480624FF6FF7303EA8D
:101EF0000121114381837047028B22F080020A4343
:101F000002837047028BC2F30E024FF6FF7303EA9F
:101F10000121114301837047828B22F080020A4322
:101F200082837047828BC2F30E024FF6FF7303EA7F
:101F30000121114381837047028C22F002020A437F
:101F400002847047028C22F008020A430284704720
:101F5000028C22F020024FF6FF7303EA01111143B5
:101F600001847047028C22F080024FF6FF7303EA6F
:101F70000111114301847047028C22F400724FF664
:101F8000FF7303EA0121114301847047028C22F49C
:101F900000624FF6FF7303EA012111430184704789
:101FA000028C22F400524FF6FF7303EA0131114311
:101FB0000184704710B501238B40048C9C4304843A
:101FC000038C8A4013430384CFE610B504238B406F
:101FD000048C9C430484038C8A4013430384C4E62A
:101FE00030B500F1180301248C40058CA54305840D
:101FF000002911D008290FD0091FC1F34E00184441
:10200000016821F4E041016001684FF6FF7303EAC3
:1020100002221143016030BD03EB5100016821F041
:102020007001016001681143016030BD002904D0D6
:10203000018841F0020101807047018821F002010E
:1020400001807047002904D0018841F0040101801B
:102050007047018821F0040101807047002904D0F5
:10206000818841F0800181807047818821F0800162
:1020700081807047028822F00802028002880A43A9
:1020800002807047828822F07002828082880A4330
:1020900082807047028922F00702028102890A4386
:1020A00002817047028922F08002028102890A437C
:1020B00002817047818470478185704781867047AF
:1020C0000187704781877047A0F8401070470288E9
:1020D00022F44072028002880A4302807047808E98
:1020E0007047008F7047808F7047B0F8400070478E
:1020F000808C7047008D704702460020128A0A4289
:1021000000D001207047C943018270470246002079
:10211000138A0B4092890A40002B02D0002A00D07B
:1021200001207047C94301827047000010B5E149A2
:1021300088420AD101218C032046FFF7A0F92046EE
:10214000BDE810400021FFF79AB9DB4988420AD167
:1021500001214C042046FFF79DF92046BDE81040C0
:102160000021FFF797B9D54988420AD101218C0493
:102170002046FFF78FF92046BDE810400021FFF709
:1021800089B9CF4988420AD10121CC042046FFF702
:1021900081F92046BDE810400021FFF77BB9C9490D
:1021A00088420AD101210C052046FFF773F9204629
:1021B000BDE810400021FFF76DB910BD30B585B006
:1021C00004460D46208A4CF6FF710840E988014319
:1021D0002182A0894EF6F3110840A9882A8911436B
:1021E0006A8902431143A181A08A4FF6FF4108404A
:1021F000A9890143A1826846FFF7D3F8AD4884421C
:1022000001D1039800E00298A189090408D500EBE8
:10221000C00101EB001029684900B0FBF1F007E0B4
:1022200000EBC00101EB001029688900B0FBF1F060
:102230006422B0FBF2F109010B096FF018056B4342
:1022400000EB8300A3891D044FF0320307D503EB95
:10225000C000B0FBF2F000F00700084306E003EB1B
:102260000010B0FBF2F000F00F000843208105B031
:1022700030BD4FF41651016000218180C180018181
:102280000C2242818181704710B5038A4FF2FF0210
:1022900013400A884C8822438C88C9880C43224307
:1022A0001A43028210BD0021018041808180C180DB
:1022B0007047002904D0818941F400518181704721
:1022C000818921F400518181704710B540F66A136D
:1022D000C1F3421301F01F040121A140012B07D0DB
:1022E000022B07D014303AB102680A43026010BDD5
:1022F0000C30F8E71030F6E702688A43026010BD40
:10230000002A03D0828A0A4382827047828A8A43E3
:1023100082827047028A22F00F020282028A0A43F6
:1023200002827047828922F40062828182890A4394
:1023300082817047002904D0818941F002018181A6
:102340007047818921F0020181817047028A22F061
:1023500020020282028A0A4302827047002904D0C6
:10236000018A41F4804101827047018A21F4804151
:1023700001827047C1F30801818070478088C0F3F3
:1023800008007047818941F0010181817047028B0B
:10239000D2B20283028B42EA012101837047028B91
:1023A00002F47F420283028B0A43028370470029B2
:1023B00004D0818A41F0200181827047818A21F016
:1023C000200181827047002904D0818A41F01001E8
:1023D00081827047818A21F0100181827047002933
:1023E00004D0818A41F0080181827047818A21F0FE
:1023F000080181827047002904D0818941F400419D
:10240000818170478189C1F30E0181817047002964
:1024100004D0818A41F4006181827047818A21F46D
:10242000006181827047828A22F004028282828A5D
:102430000A4382827047002904D0818A41F0020158
:1024400081827047818A21F00201818270470246B1
:10245000002012880A4200D0012070478A05C94333
:102460000180704770B5002440F66A12C1F3421330
:1024700001F01F05012606FA05F2012B0CD0022BF4
:102480000DD0838A1340090A8E40008830400BB17A
:1024900000B10124204670BD83891340F3E7038A0D
:1024A0001340F0E740F66A120A0A01219140C9433D
:1024B000018070470038014000440040004800405F
:1024C000004C004000500040E4B04FF4C87444F6A3
:1024D00020652146684605F0C7FE684602F0DCFD2F
:1024E0008CA012F09DFF97A012F09AFF6946A1A060
:1024F00012F096FF87A012F093FF2146684605F080
:10250000B3FE684602F01CFE9BA012F089FF6946EC
:1025100098A012F085FFA2A012F082FF284602F0D8
:10252000ABF8D6E704F0EAFAFCE7AA4C4FF4005502
:10253000A94EAA4F61E004DC012807D0022827D168
:1025400010E0072808D00A2822D11EE0012194F9C2
:10255000000004F09FFB1BE0012194F9000004F04F
:1025600099FB15E094F900106170481C2070072950
:1025700001D10020207094F9000004F069FB07E00D
:102580000121082004F086FB02E095A012F048FF2C
:102590002946304600F02CFA032823D004DC012819
:1025A00007D0022826D110E0072808D00A2821D118
:1025B0001DE0002194F9000004F06CFB1AE00021FA
:1025C00094F9000004F066FB14E094F900106170C7
:1025D000481E207001D20720207094F9000004F0FA
:1025E00037FB07E00021082004F054FB02E07EA046
:1025F00012F016FF0A2002F03FF80121384600F0E1
:10260000F7F90328BCD096E70AF0E2FD0A2002F0B1
:1026100033F8F9E71CB503F04BF96E480421083094
:10262000CDE900100023802271A1744801F032FE30
:10263000012802D172A012F0F3FE66480A210C3084
:10264000CDE900100023802274A1774801F022FE1A
:10265000012802D175A012F0E3FE5E48032110307C
:10266000CDE9001000234FF4007276A1784801F004
:1026700011FE012802D177A012F0D2FE55480521A3
:102680001430CDE9001000234FF4807278A17B480C
:1026900001F000FE012802D179A012F0C1FE4D48E0
:1026A000406801F040FEBDE81C4003F01BB910B5C6
:1026B00001214020FEF7C2FE4FF44070FDF75CFEA2
:1026C00000F04FFE00F074F900F07AF900F044FDDC
:1026D00000F028FD01F034F8BDE8104000F069BFBB
:1026E0001CB5FFF7E4FF6DA012F09AFE39480121F6
:1026F000001DCDE900100A02002376A1794801F0FF
:10270000C9FD012802D04FF0FF301CBD02F0E3F9F3
:10271000FEE700002D2D2D2D2D2D2D2D2D2D2D2DB8
:102720002D2D2D2D2D2D2D2D2D2D2D2D2D2D2D2DD9
:102730002D2D2D2D2D2D2D2D2D2D2D2D2D2D2D2DC9
:102740002D0D0A00C8CECEF1C3FB20202020202072
:10275000C8CECEF1D7B4CCAC20D3C5CFC8BCB62040
:102760002020CAA3D3E0D5BB20C8CECEF1D0F2BA88
:10277000C50D0A0025730000C8CECEF1C3FB202092
:102780002020202020D4CBD0D0BCC6CAFD202020C1
:10279000202020202020C0FBD3C3C2CA0D0A000085
:1027A0002D2D2D2D2D2D2D2D2D2D2D2D2D2D2D2D59
:1027B0002D2D2D2D2D2D2D2D2D2D2D2D2D2D2D2D49
:1027C0002D2D2D2D2D2D2D2D2D2D2D2D2D0D0A0A9F
:1027D0000000000028000020001001400008014017
:1027E0006572726F720D0A006572726F720A000074
:1027F000546F7563685F5461736B000009260008AD
:10280000B4B4BDA8546F7563685F5461736BC8CE70
:10281000CEF1B3C9B9A6210D0A0000004B65795F5E
:102820005461736B000000002B250008B4B4BDA8F0
:102830004B65795F5461736BC8CECEF1B3C9B9A64D
:10284000210D0A004755495F5461736B0000000079
:1028500025250008B4B4BDA84755495F5461736B82
:10286000C8CECEF1B3C9B9A6A3A10D0A00000000DD
:102870004350555F5461736B00000000C924000889
:10288000B4B4BDA84350555F5461736BC8CECEF14C
:10289000B3C9B9A6A3A10D0A00000000D5E2CAC7BA
:1028A000D2BBB8F65BD2B0BBF05D2D53544D333282
:1028B000C8ABCFB5C1D0BFAAB7A2B0E52D467265EF
:1028C0006552544F532DB9CCBCFEBFE2CAB5D1E915
:1028D0000A0A00004170705461736B437265617441
:1028E0006500000015260008704712A012F098FD40
:1028F000FEE7FEE7FEE7FEE7704710B502F027FBB4
:10290000012803D0BDE8104002F0FFBF10BD10B594
:102910000B4C01212046FFF7F9FB002809D009489C
:102920000168491C01602046BDE810400121FFF705
:10293000F9BB10BD675F5F672F722F6E000000004C
:10294000001000404000002008B54FF44070FDF733
:1029500013FD36208DF8000005208DF801000020C1
:102960008DF8020001208DF803006846FDF709FD8F
:1029700008BD3EB501211020FEF776FD40F2E7309C
:10298000ADF804004720ADF800000C4C6946204625
:10299000FEF79EFE01212046FFF7B5FB01221146FE
:1029A0002046FFF780F901212046FFF762F93EBD7E
:1029B00010B5FFF7C9FFBDE81040DAE7001000408E
:1029C00008B501211420FEF744FD04208DF8030012
:1029D0000120ADF8000069464C48FEF734FB4FF487
:1029E0000050ADF8000069464948FEF72CFB08BDD1
:1029F00070B5464A5242821807D0B2F5006F0DD02A
:102A000044A012F00DFD082070BD012904D048A09B
:102A100012F006FD082070BD4E4C09E0B1F5005FD4
:102A200004D043A012F0FCFC082070BD494CA41D4A
:102A3000FEF764FB60702178002239B1012902D0D1
:102A400007290AD106E0D8B1012808D00123A8B38C
:102A5000012821D098B3012846D00A2070BDE27029
:102A6000A078401CC0B2A07022716179022905D102
:102A7000642803D3A2700720207070BD082070BDA9
:102A8000E078401CC0B2E070082803D32270E270E6
:102A9000002070BD082070BDA078401CC0B2A0709E
:102AA000082809D32370A2706079012808D006286D
:102AB00002D0401C60712271082070BD04E018E053
:102AC000022060710820F8E7A2706179012909D01D
:102AD0002079451C2571142804D9491EC8B22271D9
:102AE0006371EAE70820E8E7E2706271227107206B
:102AF000E3E7E078401CC0B2E070082803D32270FE
:102B0000E2700020D9E70820D7E700000008014064
:102B1000001001406572726F723A206B6579206413
:102B20006F206E6F742065786973740D0A00000061
:102B30006572726F723A204750494F20706F7274FD
:102B40002070696E206E6F74206D617463680D0A69
:102B5000000000004400002001B502E00098401E83
:102B6000009000980028F9D108BD2DE9F84F012107
:102B70006020FEF76EFC03248DF8024018258DF8C6
:102B800003504FF48047ADF800706946FE48FEF7E9
:102B90005AFA4FF40048ADF800806946FA48FEF74B
:102BA00052FA0120ADF800006946F748FEF74BFAEB
:102BB0000220ADF800006946F348FEF744FA80268B
:102BC000ADF800606946F148FEF73DFA4FF48079B0
:102BD000ADF800906946ED48FEF735FA4FF4007AFB
:102BE000ADF800A06946E948FEF72DFA4FF4806B76
:102BF000ADF800B06946E548FEF725FA3001ADF8BA
:102C000000006946E148FEF71EFA7001ADF80000C9
:102C10006946DE48FEF717FAB001ADF800006946D4
:102C2000DA48FEF710FAADF800706946D748FEF7AB
:102C30000AFAADF800806946D448FEF704FAADF808
:102C400000906946D048FEF7FEF9ADF800A069464D
:102C5000CD48FEF7F8F9ADF800B06946CA48FEF76E
:102C6000F2F98DF802408DF803501025ADF80050B0
:102C70006946C548FEF7E7F92020ADF8000069462F
:102C8000C148FEF7E0F9ADF800606946BE48FEF7BE
:102C9000DAF9E801ADF800006946BB48FEF7D3F960
:102CA0008DF803508DF802400220ADF8000069460F
:102CB000B648FEF7C8F98DF803508DF80240280297
:102CC000ADF800006946B048FEF7BDF9BDE8F88FE1
:102CD00000B597B03C2108A805F0C6FA1C2101A850
:102CE00005F0C2FA01210802FEF7A8FB01200190BD
:102CF0000420039080060790002002900490059025
:102D000006900890099008210A9110210B910C90CF
:102D10000E900F9010900902119112901390149040
:102D200001A81590169008A8FDF7FFFE01210020CC
:102D3000FEF72FF817B000BD10B504204FF0C044C7
:102D4000208093490888088808884FF6FF7303EAB3
:102D5000002208881043A0F50542523A0DD0D32036
:102D6000208008880888088803EA00220888104321
:102D7000A0F51341413900D0002010BD10B5FFF778
:102D8000DBFF8449C880844A8149A0F513434FF092
:102D9000C044413B7ED0A0F50543523B7BD1CF20C0
:102DA000208000200880C120088030200880ED208D
:102DB0002080642008800320088012200880812061
:102DC0000880E82020808520088010200880782056
:102DD0000880CB202080392008802C20088000200B
:102DE00008803420088002200880F72020802020DE
:102DF0000880EA202080002008800880C0202080F1
:102E000021200880C120208011200880C52020803A
:102E10002D20088033200880362020800020088064
:102E20003A20208055200880B12020800020088092
:102E300017200880B62020800A200880A220088061
:102E4000F62020800120088030200880F220208099
:102E5000002008802620208001200880E02020809B
:102E6000D0200880002008800220088007200880E9
:102E70000B2008801A200880312008805420088008
:102E800040200880292008801220088008800880BF
:102E9000172001E029E027E00880E1202080D020F1
:102EA0000880002008800220088007200880052074
:102EB0000880252008802D20088044200880452097
:102EC00008801C20088018200880162008801C20FC
:102ED00008801D200880112020801046FFF73CFE4E
:102EE000292020802C20208010BDCF202080002091
:102EF00008808120088030200880ED202080642018
:102F00000880032008801220088081200880E820A3
:102F10002080852008801020088078200880CB2021
:102F20002080392008802C20088000200880342050
:102F3000088006200880F720208020200880EA20D2
:102F40002080002008800880B12020800020088098
:102F50001B200880B62020800A200880A22008803C
:102F6000C020208035200880C120208011200880CA
:102F7000C5202080452008800880C7202080A2200E
:102F80000880F220208009E0001401400018014070
:102F90000000026050000020FCBF020000200880FA
:102FA0002620208001200880E02020800F2008803B
:102FB00026200880242008800B2008800E2008800E
:102FC0000920088054200880A82008804620088016
:102FD0000C20088017200880092008800F20088016
:102FE0000720088000200880E12020800020088041
:102FF000192008801B2008800420088010200880E9
:10300000072008802A20088047200880392008806F
:10301000032008800620088008803020088038209F
:1030200008800F20088036202080C82008802A20B1
:1030300020800020088008800880EF2008802B2056
:103040002080002008800880012008803F20088020
:103050003A20208055200880112020801046FFF75C
:103060007BFD2920208010BD30B507283BD8364B8A
:103070001870C4074FF0F0014FF4A07214D05A80BA
:10308000998036210C072180DA883049A2F5134552
:10309000413D04D0A2F50545523D08D009E0082283
:1030A00042EA4010088004E059809A80E9E7400134
:1030B00008802A2020800020088008805888401E30
:1030C000C0F307220A80C0B208802B202080002095
:1030D000088008809888401EC0F307220A80C0B28A
:1030E00008802C20208030BD70B5194C022120466C
:1030F000FEF71AF840F6FF252846FFF72DFD0221BE
:103100002046FEF70FF82846BDE8704024E5114A36
:103110004FF48051002802D01046FEF705B8104643
:10312000FEF700B810B5FFF720FDFFF7D1FD012035
:10313000FFF7EDFFFFF7D8FFFFF720FE024800780A
:10314000BDE8104090E70000500000200000026041
:1031500000180140001401402DE9F84300200090C0
:1031600001216020FEF775F90124ADF800408DF8CB
:10317000024010258DF80350DFF8B48169464046BF
:10318000FDF761FF0420ADF8000069464046FDF7F9
:103190005AFF0820ADF800008DF8024048278DF84E
:1031A000037069464046FDF74EFF6603ADF80060C8
:1031B0008DF802408DF803505E4C69462046FDF7BD
:1031C00042FF31462046FDF7AFFFADF800508DF8C5
:1031D000037069464046FDF736FFBDE8F88301B548
:1031E000002104E00C20401EC0B2FCD2491C009813
:1031F0008142F7D308BD70B506464D4D04212846DF
:10320000FDF792FF01212846FDF78EFF0024C4F14F
:10321000070126FA01F0C00704D004212846FDF773
:1032200081FF03E004212846FDF77EFF0520FFF71C
:10323000D6FF01212846FDF775FF0520FFF7CFFFD8
:1032400001212846FDF770FF641CE4B2082CDED390
:1032500070BD70B50025364E04213046FDF764FF81
:1032600001213046FDF75EFF002401213046FDF7C5
:103270005BFF08213046FDF741FFC4F10B01884098
:10328000284385B201213046FDF74CFF641CE4B2AF
:103290000C2CEAD3284670BD2DE9FC4106461021CE
:1032A0002348FDF72BFF10B10020BDE8FC8100246E
:1032B0006D463046FFF79FFFFFF7CBFF25F8140060
:1032C000641CE4B2042CF4D300221346511C0846BB
:1032D000C9B208E035F8134035F81170BC4200D986
:1032E0000B46491CC9B20429F4D335F8121035F83D
:1032F000134025F8124025F81310C2B2032AE4D374
:10330000BDF80410BDF802000B4A0B1A052B05DDB1
:10331000D02E01D05088C8E71088C6E7D02E03D041
:10332000084440085080C0E7084440081080BCE7CB
:1033300000180140001401405800002008B54FF467
:10334000A060FDF719F825208DF8000001208DF808
:1033500001008DF802008DF803006846FDF711F8B2
:1033600008BD10B586B001210420FEF772F80121D6
:103370008803FEF76EF818208DF817004FF40070E0
:10338000ADF8140003208DF816004E4C05A9204618
:10339000FDF759FE04218DF817100902ADF814103D
:1033A00005A92046FDF74FFE4FF4E13001900020C3
:1033B000ADF810000C21ADF80E10ADF80C00ADF812
:1033C0000A00ADF80800404C01A92046FEF7F6FEC1
:1033D000FFF7B4FF012240F225512046FEF775FFAA
:1033E00001212046FEF765FF06B010BD10B504466A
:1033F0002046FEF7BFFF80212046FFF728F800286F
:10340000F9D010BD2DE9F04107460D4616460024BF
:1034100005E0295D3846FFF7E9FF641CE4B2B442D9
:10342000F7D340213846FFF712F80028F9D0BDE85D
:10343000F08170B506460D4600243046295DFFF741
:10344000D5FF641C285D0028F7D140213046FEF7E7
:10345000FEFF0028F9D070BD70B50546080ACCB251
:1034600001462846FEF786FF80212846FEF7EFFF3B
:103470000028F9D021462846FEF77CFF8021284607
:10348000FEF7E5FF0028F9D070BD70B504460E4D7B
:10349000E1B22846FEF76EFF80212846FEF7D7FFEF
:1034A0000028F9D0204670BD10B5074C20212046D9
:1034B000FEF7CDFF0028F9D02046BDE81040FEF70A
:1034C0005DBF0000000801400038014010B586B023
:1034D00001210420FDF7BDFF01214807FDF7C4FFCE
:1034E0003020ADF8140000248DF8174005A941489C
:1034F000FDF7A9FD2420019002940220049001A967
:103500000020FDF765F901A91020FDF761F90121FF
:103510000020FDF775F901211020FDF771F9012157
:103520001020FDF77AF906B010BD3EB5012108461E
:10353000FDF79AFF9520ADF800000520ADF80400D6
:103540000020ADF80600ADF802004FF08044694657
:103550002046FEF7BDF820212046FEF793FD01210D
:103560002046FEF786FB3EBD10B58CB0012102203F
:10357000FDF764FF2048019020480290102003903E
:103580002021049100200590802206920A010792D2
:103590008A010892099109020A910B90184C01A91D
:1035A0002046FDF70EFA01212046FDF734FA0CB053
:1035B00010BD10B50024FFF789FFFFF7B6FF114AD1
:1035C0000E4932F8140000EB004041F82400641C5E
:1035D000202CF6D3BDE81040C6E710B504460A48D3
:1035E0000122B0FBF4F0401E81B29007FEF7D2FB3F
:1035F000204610BD0008014020740040C803002090
:1036000044040240745D0108D8B8050008B50121E2
:103610001020FDF71EFF2020ADF8000000208DF8DF
:10362000030069464C48FDF70EFD08BD3EB501217B
:103630000220FDF719FF0B20ADF804000520ADF8BE
:1036400000000020ADF80600ADF80200434C6946CA
:103650002046FEF73DF820212046FEF713FD01210C
:103660002046FEF706FB3EBD30B591B0012108466D
:10367000FDF7E4FE01214802FDF7EBFE384D284638
:10368000FDF728F94FF4FA6009900024089410948B
:103690003449079129150D9180210B9120200E901E
:1036A0003148069080150C900A9440010F9006A9AD
:1036B0002846FDF786F901212846FDF7ACF98DF87B
:1036C0000940049428040390019401208DF814000B
:1036D0008DF80840244C01A94C3C2046FCF7D4FE50
:1036E0000020FDF739FE002301220F212046FCF7C0
:1036F00055FF01212046FCF7FBFE01212046FCF787
:10370000EBFE2046FCF70BFF2046FCF70DFF0028E0
:10371000FAD12046FCF70FFF2046FCF711FF0028E6
:10372000FAD101212046FCF773FF11B030BD0F49DB
:10373000B1FBF0F0401E81B201220848FEF72ABB1F
:1037400010B5FFF763FFFFF78FFFFFF76FFFBDE8CF
:10375000104044F62060EAE70010014000040040F9
:1037600008000240480400204C240140808D5B008A
:1037700000F1080141604FF0FF328260C1600161D9
:1037800000210160704700210161704742684A6072
:1037900093688B6093685960916008610168491C67
:1037A0000160704730B50C68621C02D000F108025D
:1037B00002E0026904E01A4653681D68A542FAD97E
:1037C00053684B6099608A60516008610168491CC8
:1037D000016030BD0169D0E901329A60D0E901236E
:1037E0005A604A68824201D182684A6000220261BE
:1037F0000868401E0860704770B504460D46002CEE
:1038000005D140F21B12F8A1FEA011F009FE02F052
:103810004FF8D4E90F20216802FB001161600021FC
:10382000A1632168A160E06B2268216C401E00FB4F
:103830000121E1604FF0FF3084F8440084F8450036
:1038400004F110004DB1FFF793FF04F12400FFF7DE
:103850008FFF02F047F8012070BD21690029F8D0E0
:1038600001F0A8FA0028F4D0EA494FF0805008602F
:10387000BFF34F8FBFF36F8FEBE770B51D46049C0E
:10388000002909D02260E063216401212046FFF76E
:10389000B3FF84F84C5070BD2460F4E7F8B50546DA
:1038A0000E461746002D05D14FF4C472CEA1D5A007
:1038B00011F0B6FD86B105FB06F0503001F0CDFEEB
:1038C00004463CB104F150023B4631462846009480
:1038D000FFF7D3FF2046F8BD0020EEE72DE9F041C9
:1038E000044601F0E5FF94F9455004F1240609E08F
:1038F000606A48B1304601F05DFA08B101F016FB8C
:103900006D1E6DB2002DF3DC4FF0FF3684F845607C
:1039100001F0E8FF01F0CCFF94F9445004F11007E6
:1039200009E0206948B1384601F044FA08B101F0D5
:10393000FDFA6D1E6DB2002DF3DC84F84460BDE825
:10394000F04101F0CFBF10B5044601F0B1FFA06B0C
:10395000E16B884201D1012400E0002401F0C2FFA4
:10396000204610BD2DE9F041044617460026A56B00
:10397000226C002A10D0C7B1E06804F04DFCE16869
:10398000206C091AE1602268914202D26168081A2B
:10399000E060022F16D017E02068A8B9606801F037
:1039A00021FB0646002060600EE0A06804F034FCB5
:1039B000216CA0680844A0606168884204D3206834
:1039C000A06001E005B16D1E6D1CA5633046BDE829
:1039D000F0812DE9FF4782B004468A461E46002545
:1039E000002C05D140F2D9227FA186A011F018FD4C
:1039F000BAF1000F07D1206C28B140F2DA227AA187
:103A000080A011F00DFD022E08D1E06B012805D039
:103A100040F2DB2274A17BA011F002FD01F097FAC5
:103A200038B9049828B140F2DE226FA175A011F0D8
:103A3000F7FC4FF000094FF08057DFF8D88101F014
:103A400037FFA06BE16B884205D3022E03D00498A8
:103A500008B325B327E0324651462046FFF782FFE0
:103A6000616A59B104F1240001F0A4F968B1C8F801
:103A70000070BFF34F8FBFF36F8F06E028B1C8F817
:103A80000070BFF34F8FBFF36F8F01F02BFF01204A
:103A900006B0BDE8F08701F025FF0020F8E7684692
:103AA00001F0FAF9012501F01DFF00F098FD01F089
:103AB000FFFE94F94400401C01D184F8449094F92D
:103AC0004500401C01D184F8459001F00BFF04A98A
:103AD000684601F0F3F930B12046FFF7FFFE00F031
:103AE000CFFC0020D4E72046FFF72DFF90B104F172
:103AF0001000049901F00CF92046FFF7EFFE00F0EA
:103B0000BFFC00289BD1C8F80070BFF34F8FBFF3F4
:103B10006F8F94E72046FFF7E1FE00F0B1FC8EE7DF
:103B2000002807D0002141600160C16000231A46CF
:103B300019464EE7704710B5024600210120FFF7F5
:103B4000ADFE04462046FFF7EBFF204610BD70B5E2
:103B500005460C46002D05D140F2BD2222A129A028
:103B600011F05EFCAC4205D940F2BE221EA125A098
:103B700011F056FC022200212846FFF78FFE002894
:103B800000D0846370BD2DE9F04704468946904615
:103B90001F46002C05D140F29F3213A119A011F04D
:103BA0003FFCB9F1000F07D1206C28B14FF46872C7
:103BB0000DA114A011F034FC022F08D1E06B0128F4
:103BC00005D040F2A13208A10EA011F029FC01F0AD
:103BD000B0FE5020EFF3118680F31188BFF34F8FB2
:103BE000BFF36F8FA06B17E02E2E5C2E2E5C4672FB
:103BF000656552544F535C7372635C71756575658E
:103C00002E6300004572726F723A25732C25640D85
:103C10000A00000004ED00E0E16B884205D3022FAA
:103C200003D0002086F3118833E794F945503A46D3
:103C300049462046FFF796FE681C04D06D1C84F8A8
:103C400045500120EEE7606A0028FAD004F1240014
:103C500001F0B0F80028F4D0B8F1000FF1D0012045
:103C6000C8F80000EDE770B504460E46002C07D1F9
:103C700040F23C42AFF29001AFF2780011F0D0FB7D
:103C8000206C38B14FF48862AFF2A401AFF28C001F
:103C900011F0C6FB206848B9606838B140F245426F
:103CA000AFF2BC01AFF2A40011F0BAFB01F041FE8B
:103CB0005020EFF3118580F31188BFF34F8FBFF3CE
:103CC0006F8FA26BE06B904218D994F94500521C9B
:103CD000A263411C04D0401C84F8450001200EE082
:103CE000606A0028FAD004F1240001F063F800288B
:103CF000F4D0002EF2D001203060EFE7002085F3F1
:103D0000118870BD10B5044601F0D2FDA06B20B142
:103D1000002401F0E7FD204610BD0124F9E730B48E
:103D20000B46026C002A0CD0C1681144C160446883
:103D3000A14201D30168C160C16830BC184604F0DB
:103D40006BBA30BC70472DE9FF4F83B004468A46FA
:103D50009B460026002C07D140F2DC42AFF27811DE
:103D6000AFF2601011F05CFBBAF1000F09D1206CCA
:103D700038B140F2DD42AFF29011AFF2781011F09D
:103D80004FFB01F0E4F848B9059838B14FF49C6254
:103D9000AFF2AC11AFF2941011F042FB4FF00009FA
:103DA0004FF08057DFF8848301F082FDA56B95B357
:103DB000E66851462046FFF7B2FFBBF1000F13D073
:103DC000E660606A50B104F1240000F0F3FF28B10E
:103DD000C8F80070BFF34F8FBFF36F8F01F082FD03
:103DE000012007B0BDE8F08F6D1EA563206810B9F3
:103DF00001F01EFA606020690028EFD004F1100085
:103E000000F0D8FF0028E9D0C8F80070BFF34F8F4A
:103E1000BFF36F8FE2E7FFE7059808B126B107E02F
:103E200001F060FD0020DCE701A801F035F8012673
:103E300001F058FD00F0D3FB01F03AFD94F9440085
:103E4000401C01D184F8449094F94500401C01D1F4
:103E500084F8459001F046FD05A901A801F02EF86F
:103E600058B12046FFF73AFD00F00AFB2046FFF765
:103E700049FF002898D00020B3E72046FFF742FF13
:103E8000E0B1206830B901F013FD606801F06BF813
:103E900001F028FD04F12400059900F039FF2046C7
:103EA000FFF71CFD00F0ECFA00287FF47DAFC8F8A6
:103EB0000070BFF34F8FBFF36F8F75E72046FFF79A
:103EC0000DFD00F0DDFA6FE72DE9F0470446894665
:103ED0009046002C07D14FF4B462AFF2F421AFF258
:103EE000DC2011F09DFAB9F1000F09D1206C38B136
:103EF00040F2A152AFF21031AFF2F82011F090FA77
:103F000001F017FD5020EFF3118780F31188BFF304
:103F10004F8FBFF36F8FA66BF6B194F944504946AB
:103F20002046FFF7FCFE761EA663681C04D06D1CBD
:103F300084F84450012010E020690028FAD004F1F0
:103F4000100000F037FF0028F4D0B8F1000FF1D0D6
:103F50000120C8F80000EDE7002087F3118898E5FC
:103F60002DE9F04104460F46002C07D140F2FC52E7
:103F7000AFF28C31AFF2743011F052FA4FB9206CBD
:103F800038B140F2FD52AFF2A031AFF2883011F0FB
:103F900047FA206C38B940F2FE52AFF2B431AFF2BA
:103FA0009C3011F03DFA01F0C4FC5020EFF3118574
:103FB00080F31188BFF34F8FBFF36F8FA06B38B1C1
:103FC000E66839462046FFF7AAFEE660012000E0D9
:103FD000002085F31188FAE410B50446002C07D1BF
:103FE00040F22F62AFF20041AFF2E83011F018FA60
:103FF00001F05EFCA46B01F075FC204610BD10B50D
:104000000446002C07D140F24162AFF22441AFF2E6
:104010000C4011F005FA01F04BFCD4E90E10441AE3
:1040200001F060FC204610BD10B50446002C07D1FD
:1040300040F25162AFF25041AFF2384011F0F0F966
:10404000A06B10BD00213A4A02EBC1035B688342BA
:1040500006D1002042F8310002EBC10148607047F0
:10406000491C0A29F0D3704710B50446002C07D12B
:1040700040F25D62AFF29041AFF2784011F0D0F9BA
:104080002046FFF7DFFF2046BDE8104001F04CBBA3
:10409000806C70478164704790F84C00704710B591
:1040A0000446002C07D140F29372AFF2C441AFF244
:1040B000AC4011F0B5F9A06B08B1002010BD012093
:1040C00010BD10B50446002C07D140F2BA72AFF211
:1040D000E841AFF2D04011F0A3F9A06BE16B884248
:1040E00001D1012010BD002010BD10B50022104BE1
:1040F00053F832401CB1521C0A2AF9D310BD43F8C0
:10410000321003EBC201486010BD10B5002400213D
:10411000074A02EBC1035B68834202D152F8314087
:1041200002E0491C0A29F4D3204610BD04ED00E04A
:10413000E813002070B50024FC4D04EB840005EB6F
:104140008000FFF715FB641C202CF6D3F848FFF71E
:104150000FFBF7481430FFF70BFBF5482830FFF74B
:1041600007FBF3483C30FFF703FBF1485030FFF703
:10417000FFFAF048EE49C1631431016470BD70B5B7
:10418000044601F095FBEB4DA868401CA860286828
:1041900010B1686938B10CE02C60A868012808D11A
:1041A000FFF7C8FF05E02868E16AC06A884200D8C6
:1041B0002C60686A401C68626064E06A01212A69B8
:1041C000814011432961D94900EB800001EB800057
:1041D000211DFFF7DBFA01F085FB686900280CD090
:1041E0002868E16AC06A884207D2D3494FF08050FC
:1041F0000860BFF34F8FBFF36F8F70BD2DE9F0479D
:104200008146DDE908580A9C0E4617469A46B900D1
:10421000A522206B04F021F8206B7F1E00EB8700A5
:1042200020F00707780705D040F22B32C3A1CAA0BF
:1042300011F0F6F800202218315C82F83410315C5D
:1042400011B1401C1028F6D3002684F84360202DBD
:1042500000D31F25E562E5642665201DFFF793FA6C
:1042600004F11800FFF78FFA2461C5F12000A06166
:1042700064626665A66584F85C60524649463846C5
:1042800001F0BDFA2060B8F1000F01D0C8F800407D
:10429000BDE8F0872DE9FF5F8146DDE90E788A46AB
:1042A00016469B46B00001F0D8F9054628000AD012
:1042B000602001F0D2F904460CB1256304E02846E1
:1042C00001F032FA00E000248CB10020CDE9024078
:1042D000CDE900785B46324651464846FFF78EFFEF
:1042E0002046FFF74CFF012004B0BDE8F09F4FF0DF
:1042F000FF30F9E78F48C16B0968002905D0C16B11
:10430000C968C9684968816270474FF0FF318162AE
:10431000704710B50446206B01F006FA2046BDE850
:10432000104001F001BA70B5044601F0C1FA814DA8
:1043300004B92C68201DFFF74DFA58B9E06A7B4A92
:1043400000EB800152F8211021B901218140286938
:1043500088432861A06A18B104F11800FFF73AFAFF
:10436000686A401C68622868844208D17048211D30
:104370003C30FFF70BFA6868401C686007E0A868EB
:10438000401EA8602046FFF7C4FFFFF7B3FF01F00F
:10439000A9FA6869002812D0286884420FD1286BD6
:1043A00028B140F2654265A16BA011F039F862496D
:1043B0004FF080500860BFF34F8FBFF36F8F70BD19
:1043C0002DE9F04100265B4F386B002808D0B86912
:1043D000401CB861F86900B101263046BDE8F081A3
:1043E000FD686D1CFD608DB9F86B006828B140F662
:1043F000D91252A158A011F013F8F86B396CF96377
:104400003864386A401C3862FFF774FFB86ADFF816
:104410001C8185420DD3F86B006838B1F86BC06819
:10442000C468606885420ED2B86202E04FF0FF3087
:10443000B8623868C06A00EB800058F82000012894
:10444000C8D90126C6E7201DFFF7C4F9A06A18B134
:1044500004F11800FFF7BEF9E06A01213A698140D2
:104460001143396100EB800008EB8000211DFFF74C
:104470008DF9E06A3968C96A8842CCD30126CAE757
:104480002DE9F041002400272A4D286B002805D192
:104490004FF4FD6229A130A010F0C2FF01F008FA2C
:1044A000286B401E2863286BF0BBA868E0B3DFF8D8
:1044B0008080012608F128081DE0D8F80C00C468A7
:1044C00004F11800FFF786F9201DFFF783F9E06A71
:1044D0002A6906FA00F111432961144900EB8000B2
:1044E00001EB8000211DFFF751F9E06A2968C96AD4
:1044F000884200D3EE61D8F800000028DDD10CB16D
:10450000FFF7F8FEAC6944B1FFF75AFF00B1EE6166
:10451000641E002CF8D10020A861E86920B10127B1
:104520000549380708601FE022E000003814002029
:10453000B81600205C00002004ED00E02E2E5C2E5A
:104540002E5C4672656552544F535C7372635C74A3
:1045500061736B732E6300004572726F723A25733C
:104560002C25640D0A000000BFF34F8FBFF36F8F3F
:1045700001F0B8F9384631E72DE9F04104460F461D
:10458000F74EF5683068001DFFF724F938B9306838
:1045900090F82C1001208840316981433161601C02
:1045A00007D137B13168BDE8F041091DED48FFF78B
:1045B000EDB82C4430684460AC4206D23168306CAF
:1045C000091DBDE8F041FFF7EDB83168F06B091D3A
:1045D000FFF7E8F8B06A844200D2B462FEE6E04831
:1045E000016B491C016370472DE9F04105460E46F9
:1045F0000024002D07D140F27942AFF2C001AFF2A2
:10460000A80010F00DFF3EB940F27A42AFF2D4019B
:10461000AFF2BC0010F004FFD14F386B38B140F25C
:104620007B42AFF2E801AFF2D00010F0F9FEFFF7E5
:10463000D6FFFA682B689919934205D98B4208D99D
:10464000914206D9012404E08B4201D8914200D95D
:10465000012429601CB1881A0021FFF78DFFFFF7A4
:104660000FFF002807D1C0494FF080500860BFF30A
:104670004F8FBFF36F8FB1E610B504460020002CBA
:1046800012D0B748006B38B140F2CF42AFF25411AC
:10469000AFF23C1010F0C4FEFFF7A1FF002120464E
:1046A000FFF76AFFFFF7ECFE002807D1AE494FF095
:1046B00080500860BFF34F8FBFF36F8F10BD70B590
:1046C0000546002D07D140F2FB42AFF29011AFF248
:1046D000781010F0A5FEA24E3068854201D100206E
:1046E00070BD01F0E5F86C6901F0FCF8F06B8442F4
:1046F00002D0306C844201D1022070BD99488442BE
:1047000005D1A86A08B1022070BD032070BD95488C
:104710001438844202D00CB1012070BD042070BD59
:1047200010B5044601F0C4F80CB98D480468E46A79
:1047300001F0D8F8204610BD10B5044601F0F9F894
:104740005020EFF3118180F31188BFF34F8FBFF337
:104750006F8F0CB982480468E06A81F3118810BD3C
:104760002DE9F04104460D460026202D07D34FF4D5
:10477000B062AFF23821AFF2202010F051FE202DB0
:1047800000D31F2501F094F8754F04B93C68E06C24
:10479000A84241D0854208D939688C4209D039688D
:1047A000C96AA94205D8012603E039688C4200D1C4
:1047B0000126D4F82C80404500D1E562E564A0696B
:1047C000002802DBC5F12000A061684D08EB8801DC
:1047D000606905EB8101884215D1201DFEF7FAFFC3
:1047E000012120B93A6901FA08F082433A61E06A8E
:1047F0003A6981401143396100EB800005EB80008C
:10480000211DFEF7C3FF3EB157494FF080500860AD
:10481000BFF34F8FBFF36F8FBDE8F04101F062B877
:1048200070B54F4D286B002802D00120E86170BDA3
:104830000020E8614E480068A8636A6B904204D982
:104840002968821A4B6D1A444A6568632869B0FA70
:1048500080F0C0F11F00454E00EB800456F82400A4
:1048600038B940F6F622AFF22C31AFF2143010F026
:10487000D7FD06EB840041684968416000F10802F9
:10488000914201D1496841604068C068286070BDAC
:1048900070B5044601F00CF8314D04B92C68201DA8
:1048A000FEF798FF58B9E06A304A00EB800152F8F1
:1048B000211021B901218140286988432861A06A1B
:1048C00018B104F11800FEF785FF211D2548FEF7F9
:1048D0005DFF01F007F8686928B100F0E9FFFFF714
:1048E00009FD00F0FFFF2868844213D1686990B188
:1048F000286B38B140F25762AFF2C031AFF2A83046
:1049000010F08EFD18494FF080500860BFF34F8FB4
:10491000BFF36F8F70BD1348A9680068884202D149
:104920000020286070BDBDE8704079E770B50025B3
:104930000446002807D140F28162AFF20041AFF295
:10494000E83010F06DFD07496069884205D1A06A22
:104950002839884201D000B90125284670BD0000E1
:104960005C0000200817002004ED00E0381400204F
:104970004000002070B50446002807D140F2AB6229
:10498000AFF24841AFF2304010F04AFD002CE5D0C4
:10499000FE4D28688442E1D000F08AFF2046FFF7F0
:1049A000C5FFE8B1201DFEF715FFE06A01212A6965
:1049B000814011432961F64900EB800001EB800042
:1049C000211DFEF7E3FEE06A2968C96A884207D321
:1049D000F0494FF080500860BFF34F8FBFF36F8FE7
:1049E000BDE8704000F07EBFB8E72DE9F041002639
:1049F0000446002807D140F2E262AFF2C041AFF2B4
:104A0000A84010F00DFD00F094FF5020EFF3118549
:104A100080F31188BFF34F8FBFF36F8F2046FFF7EE
:104A200085FF38B1D94F386B40B104F11801DA482D
:104A3000FEF7ACFE85F311883046CFE4E06A3968B2
:104A4000C96A884200D30126201DFEF7C3FEE06A32
:104A500001213A69814011433961CD4900EB800061
:104A600001EB8000211DFEF791FEE3E770B5CA4E11
:104A7000C64D14361CE0FFF7B2FD306820B10024AB
:104A8000FFF7FEFCA4B901E00124F9E700F010FFF4
:104A9000F068C468201DFEF79DFEA868401EA8604F
:104AA0006868401E686000F01DFF2046FFF731FC7B
:104AB00068680028DFD151E7B54E4FF08054B54DFE
:104AC000FFF7D4FF30680128FAD92C60BFF34F8F6D
:104AD000BFF36F8FF4E71CB5AC4800242C30CDE950
:104AE000004023468022ADA1AE48FFF7D3FB01284A
:104AF0000CD0401C1ED140F28472AFF2C051AFF214
:104B0000A85002B0BDE8104010F08ABC502080F3DD
:104B10001188BFF34F8FBFF36F8F9C484FF0FF3169
:104B2000816201214161C4609F480460BDE81C406E
:104B300000F07EBE1CBD502080F31188BFF34F8F64
:104B4000BFF36F8F91490020486100F0A5BE8F48E8
:104B5000C068704710B500F0ECFE8C48C06810BD0E
:104B60008A488068704710B5002802D004461CB1FE
:104B70000AE086480468FAE740F68C02AFF2446126
:104B8000AFF22C6010F04CFC04F1340010BD002199
:104B900001E0401C491C0278A52AFAD0880880B29E
:104BA00070472DE9F04107460C4690461E46002FFF
:104BB0000ED03D46256005F134006060E86A206152
:104BC000286BE061686CA060207B032803D00AE0BA
:104BD0006E480568EEE7FFF702FDA86A08B10220FB
:104BE0002073FFF74DFCE86C6061686DA061052ED5
:104BF00001D0267303E03846FFF761FD2073B8F15A
:104C0000000F04D0286BFFF7C2FF2084B3E400201C
:104C10002084B0E42DE9F04780460C4691460026FA
:104C20002068002821D0214648684068486001F18A
:104C30000807B84201D1406848604868D0F80CA025
:104C4000606845686560BD4201D1696861606068FF
:104C5000C56806EBC60008EB80014B4601222846DA
:104C6000FFF79FFF761C5545EAD13046BDE8F08737
:104C70002DE9F04706460B46174600242025FFF78E
:104C8000AEFCDFF80881D8F8080083423CD3DFF897
:104C900000916D1E05EB850009EB800104EBC4005B
:104CA00006EB80000122FFF7B5FF0444002DF0D190
:104CB00004EBC40006EB80000222D8F83C10FFF79A
:104CC000A9FF044404EBC40006EB80000222D8F8DC
:104CD0004010FFF79FFF04442F4904EBC40006EB8C
:104CE000800004221431FFF795FF04442A4904EBA5
:104CF000C40006EB800003222831FFF78BFF044439
:104D000017B1294800683860FFF7BAFB2046ADE7C5
:104D100070B504460D46002C07D140F60632AFF2BE
:104D2000E471AFF2CC7010F07BFB184801682046AC
:104D30001831FEF737FD2846BDE8704001211BE41D
:104D40002DE9F04105460E461746002D07D140F6E5
:104D50001732AFF61801AFF6000010F061FB0B4CF4
:104D6000206B38B940F61B32AFF63001AFF61800B1
:104D700010F056FB216846F0004088612168284603
:104D80001831FEF703FD012138460FE05C000020DA
:104D90003814002004ED00E0E016002049444C45A2
:104DA00000000000B94A000840000020BDE8F041C2
:104DB000FFF7E2BB2DE9F041C068C468002C07D1C1
:104DC00040F66132AFF68C01AFF6740010F028FBAC
:104DD00004F118000746FEF7FDFCFE4D2A6B012684
:104DE0005AB13946FC48FEF7D1FCE06A2968C96A25
:104DF000884214D90120EE613DE4201DFEF7EAFC53
:104E0000E06A2A6906FA00F111432961F34900EBCF
:104E1000800001EB8000211DFEF7B8FCE5E70020D3
:104E200029E470B506460C46EA4D286B002807D1E8
:104E300040F69932AFF6FC01AFF6E40010F0F0FA5C
:104E400044F000403060F4683CB940F6A132AFF65F
:104E50001411AFF6FC0010F0E3FA3046FEF7BAFC8E
:104E6000201DFEF7B7FCE06A01262A6906FA00F168
:104E700011432961D94900EB800001EB8000211D1D
:104E8000FEF784FCE06A2968C96A884202D90120D9
:104E9000EE6163E5002061E510B50446002C07D102
:104EA00040F6C132AFF66C11AFF6541010F0B8FAFC
:104EB000C848016A2160C068606010BD70B50446D2
:104EC0000D46002C07D140F6CB32AFF69011AFF66D
:104ED000781010F0A5FA3DB940F6CC32AFF6A41127
:104EE000AFF68C1010F09CFA00F0E2FCB94AD068E2
:104EF00029684B1C08D02368126A934206D0626866
:104F0000824203D801240DE000240BE06268801A7D
:104F1000884206D2081A28602046FFF7BDFF002409
:104F200000E0012400F0DEFC204617E5A94901203D
:104F3000C8617047002801D0806C7047002070471E
:104F4000002800D081647047A24800687047A148DB
:104F50004169002903D0006B18B10020704701207F
:104F600070470220704770B50446002839D0994D2B
:104F7000E06A2968C96A884233D2A069002804DB44
:104F80002868C06AC0F12000A061E06A934E00EB7F
:104F90008000616906EB800081421FD1201DFEF771
:104FA00019FC012150B9E06A00EB800256F822207A
:104FB00022B92A6901FA00F082432A612868C06A8E
:104FC000E0622A6981401143296100EB800006EB11
:104FD0008000211DBDE87040FEF7D8BB2868C06A7C
:104FE000E062BBE470B504460026002840D0794D4D
:104FF0002868844207D040F6C762AFF6C021AFF6FA
:10500000A82010F00DFA206D38B940F6C962AFF64D
:10501000D421AFF6BC2010F003FA206D401E2065AD
:10502000E26CE16A914223D010BB201DFEF7D2FB57
:105030006A4A012150B9E06A00EB800352F823303C
:1050400023B92B6901FA00F083432B61E06CE06225
:10505000C0F12000A061E06A2B69814019432961F9
:1050600000EB800002EB8000211DFEF78FFB012684
:10507000304673E410B50446204603F014F9204688
:1050800003F0FDF8202101E02154401C0F28FBD340
:1050900000212154204410BD7FB506460024347001
:1050A0004C4881680391806800EBC000800000F0EC
:1050B000D4FA0546280042D000220399FFF7D8FD14
:1050C0000390029429E0029800EBC00005EB8000F9
:1050D000017B01292BD002292BD003292BD00429B5
:1050E0002BD0002441683046FFF7C4FF06460298E3
:1050F00000EBC00005EB80008168028CCDE9002147
:105100000369224636A1304610F09AF9304603F082
:10511000B6F806440298401C0290DDE9020188427C
:10512000D1D304B02846BDE8704000F0FDBA522447
:10513000D8E74224D6E75324D4E74424D2E77FBDFE
:10514000FEB50646002535702248816802918068C8
:1051500000EBC000800000F080FA044620005CD024
:105160006A460299FFF784FD029000986421B0FB23
:10517000F1F0009060B3019548E00198009A00EBCF
:10518000C00004EB80008169B1FBF2F54168304654
:10519000FFF770FF06465DB101982B4600EBC0009B
:1051A00004EB800012A18269304610F049F909E051
:1051B000019812A100EBC00004EB80008269304628
:1051C00010F03EF9304603F05AF8064401981BE00F
:1051D00020E000005C000020E016002038140020D1
:1051E0000925630925750925750925750D0A00002E
:1051F0000925750909257525250D0A000925750953
:10520000093C3125250D0A00401C0190DDE9010112
:105210008842B2D3204600F087FAFEBDE64908680E
:1052200080690A680968D26AC2F120028A617047FF
:10523000E1490868002803D00868026D521C026525
:105240000868704770B506460C4600F031FBDA4D31
:105250002868806D80B92A68012082F85C005CB102
:1052600001212046FFF788F9D4494FF080500860AB
:10527000BFF34F8FBFF36F8F00F034FB00F018FBCC
:105280002868846D002034B116B12968886502E071
:105290002A68611E9165296881F85C0000F022FB94
:1052A000204608E42DE9F04781460F461646984609
:1052B00000F0FEFAC04D286890F85C00022817D074
:1052C0002C68A06D20EA0900A0652968012081F8FA
:1052D0005C00B8F1000F0BD001214046FFF74CF9FC
:1052E000B6494FF080500860BFF34F8FBFF36F8F08
:1052F00000F0F8FA00F0DCFA16B12868806D306032
:10530000286890F85C0001280CD02868816DB943AA
:10531000816501242968002081F85C0000F0E2FA30
:105320002046A3E40024F5E72DE9F04104460D46AC
:1053300090461F460126002C07D141F2FD02AFF630
:105340000461AFF6EC5010F06BF800F0B1FA0FB159
:10535000A06D386094F85C00022184F85C10B8F10C
:10536000050F13D2DFE808F01203070B0D00A16D43
:105370002943A1650AE0A16D491CA16506E0A56568
:1053800004E0022801D0A56500E00026012828D10C
:10539000201DFEF71FFA884DE06A01212A6981402D
:1053A00011432961864900EB800001EB8000211D3B
:1053B000FEF7ECF9A06A38B141F23512AFF684611C
:1053C000AFF66C6010F02CF8E06A2968C96A884270
:1053D00007D97A494FF080500860BFF34F8FBFF371
:1053E0006F8F00F07FFA304610E42DE9F047044655
:1053F000DDF820800D4691469A460127002C07D102
:1054000041F26812AFF6CC61AFF6B46010F008F864
:1054100000F08FFA5020EFF3118680F31188BFF36C
:105420004F8FBFF36F8FBAF1000F02D0A06DCAF893
:10543000000094F85C00022184F85C10B9F1050FBB
:1054400013D2DFE809F01203070B0D00A16D294309
:10545000A1650AE0A16D491CA16506E0A56504E00F
:10546000022801D0A56500E00027012832D1A06AFA
:1054700038B141F2AF12AFF63C71AFF624700FF0C5
:10548000CFFF4D4D286B4FF0010978B104F11801A1
:105490004C48FEF77BF9E06A2968C96A884219D945
:1054A000B8F1000F14D0C8F8009013E0201DFEF7EB
:1054B00091F9E06A2A6909FA00F11143296100EBC8
:1054C00080013F4800EB8100211DFEF75FF9E2E714
:1054D000C5F81C9086F31188384618E42DE9F04190
:1054E00004468846002C07D141F2E312AFF6B471AE
:1054F000AFF69C700FF094FF00F01BFA5020EFF312
:10550000118780F31188BFF34F8FBFF36F8F94F82B
:105510005C00022184F85C10A16D491CA165012882
:1055200030D1A06A38B141F20922AFF6F071AFF67E
:10553000D8700FF075FF204D286B012678B104F16B
:1055400018012048FEF722F9E06A2968C96A8842F2
:1055500018D9B8F1000F14D0C8F8006012E0201D6F
:10556000FEF738F9E06A2A6906FA00F11143296169
:10557000134900EB800001EB8000211DFEF706F9C6
:10558000E2E7EE6187F3118836E410B500280BD00E
:10559000044600F08DF994F85C00022807D000243E
:1055A00000F0A0F9204610BD03480468F1E7002090
:1055B00084F85C000124F3E75C00002004ED00E0C7
:1055C00038140020E016002030B5744900E0114680
:1055D0000A688242FBD34B685C18844203D140685E
:1055E0001844486008460D6844682318AB420DD142
:1055F0006A4B103B1B689A4206D0526822444260B4
:105600000A681268026002E0036000E00260814202
:1056100000D0086030BD4FF400516148420706D009
:10562000C01D20F007005E49411AC1F500515B4AD8
:105630001060002353600144083921F00701103A3B
:1056400011604B600B600B1A436001604068906012
:1056500050604FF00040D06070472DE9F0410546A2
:105660000026FEF7BCFF4D4F103F386808B9FFF722
:10567000D2FFF86805424AD175B1083568070BD0EA
:1056800005F00700C0F108000544680704D0BF22F8
:1056900044A14EA00FF0C4FE002D38D0786885429A
:1056A00035D83E490846046801E021460446606852
:1056B000A84202D220680028F7D13868844226D058
:1056C0000E680836206808606068401B102811D9F1
:1056D00004EB05085FEA487004D0EC2231A13BA03E
:1056E0000FF09EFE6068401BC8F8040065604046ED
:1056F000FFF76AFF61687868401A7860BA6890427C
:1057000000D2B860F8680143616000202060FEF7B5
:10571000B7FE700705D04FF4967222A12BA00FF0B0
:105720007FFE3046BDE8F08170B500282BD00838E8
:1057300004461A4D6068103DE968084205D14FF4EF
:10574000A07218A121A00FF06BFE206828B140F2D2
:10575000411214A11DA00FF063FE6068E9680842C1
:1057600011D02268002A0ED188436060FEF737FF0F
:1057700060686968084468602046FFF725FFBDE857
:105780007040FEF77DBE70BD044810384068704719
:10579000024810388068704770470000B000002051
:1057A0001C1700202E2E5C2E2E5C4672656552540E
:1057B0004F535C706F72745C4D656D4D616E675CCC
:1057C000686561705F342E63000000004572726F7F
:1057D000723A25732C25640D0A0000006748406862
:1057E000401C04D0F42266A16FA00FF019FE5020D7
:1057F00080F31188BFF34F8FBFF36F8FFEE7203820
:105800004FF08073C36121F0010181616A494161F8
:1058100040F82029704769484FF47A710068B0FB5E
:10582000F1F14FF0E020491E41610721016170470D
:105830001CB5634908780190FF2008700878009033
:105840009DF800004D4A00F0500010700720906055
:1058500006E09068401E90609DF8000040000090B7
:105860009DF800000006F4D4107A000200F4E06015
:105870009060019808705348016841F4700101601C
:10588000016841F070410160FFF7C5FF00205060E2
:10589000FAF76CFC00201CBD38484068B0F57A7FF0
:1058A00005D04FF4B57236A13FA00FF0B9BD7047D7
:1058B000502080F31188BFF34F8FBFF36F8F2F49B4
:1058C0004868401C486001280BD13E481C380068DD
:1058D00010F0FF0F05D04FF4BD7229A132A00FF0D8
:1058E0009FBD704710B5254C6068002805D140F277
:1058F000811223A12CA00FF093FD6068401E606010
:10590000002801D180F3118810BD10B5502080F31C
:105910001188BFF34F8FBFF36F8FFEF751FD20B19A
:1059200028494FF080501C390860002080F311880E
:1059300010BD10B5FAF750FC104C10280CD300F134
:10594000E02090F8F0032178884205D24FF42A72C3
:105950000BA115A00FF064FD1A4814380068A16867
:1059600000F4E060884207D9BDE810404FF42E7281
:1059700003A10DA00FF054BD10BD0000B800002021
:105980002E2E5C2E2E5C4672656552544F535C7011
:105990006F72745C525644535C41524D5F434D33B9
:1059A0005C706F72742E63004572726F723A257369
:1059B0002C25640D0A000000DD57000800000020BF
:1059C00000E400E020ED00E010B54FF4E0410448B1
:1059D00004F00EFABDE81040024806F01DBF0000BA
:1059E0001C370020706E0108704770479020FDF74B
:1059F00053BCD020FDF750BCFFF7A9B8FEF73CBE62
:105A000070470120FAE710B50120FEF794F8274C03
:105A1000206020B9882226A12EA00FF001FD0322CC
:105A200000210120FDF73AFF606020B100231A46F3
:105A30001946FDF7CEFF6068002806D1BDE810408A
:105A40008B221BA123A00FF0EBBC10BD1748002335
:105A50001A4619460068FDF7BCBF10B5134C206804
:105A6000002801D1FFF7CFFF00232068BDE81040D8
:105A70005A1E1946FEF767B9FFF766BA70B50B4CA8
:105A80004FF0FF3500232A4619466068FEF75BF9A0
:105A90000128F7D170BD054800231A461946406811
:105AA000FDF797BF7047704770470000C4000020A3
:105AB0002E2E5C2E2E5C5354656D57696E5C4F53D1
:105AC0005C4755495F585F4672656552544F532E87
:105AD000630000004572726F723A25732C25640DC5
